{
  "contractName": "Score",
  "abi": [
    {
      "inputs": [],
      "stateMutability": "nonpayable",
      "type": "constructor"
    },
    {
      "anonymous": false,
      "inputs": [
        {
          "indexed": true,
          "internalType": "uint256",
          "name": "",
          "type": "uint256"
        }
      ],
      "name": "score_set",
      "type": "event"
    },
    {
      "inputs": [
        {
          "internalType": "address",
          "name": "user",
          "type": "address"
        }
      ],
      "name": "getScore",
      "outputs": [
        {
          "internalType": "uint256",
          "name": "",
          "type": "uint256"
        }
      ],
      "stateMutability": "view",
      "type": "function"
    },
    {
      "inputs": [
        {
          "internalType": "uint256",
          "name": "_score",
          "type": "uint256"
        },
        {
          "internalType": "address",
          "name": "user",
          "type": "address"
        }
      ],
      "name": "setScore",
      "outputs": [],
      "stateMutability": "nonpayable",
      "type": "function"
    }
  ],
  "bytecode": "0x6080604052600160008060009054906101000a900473ffffffffffffffffffffffffffffffffffffffff1673ffffffffffffffffffffffffffffffffffffffff1673ffffffffffffffffffffffffffffffffffffffff1681526020019081526020016000205460025534801561007457600080fd5b50336000806101000a81548173ffffffffffffffffffffffffffffffffffffffff021916908373ffffffffffffffffffffffffffffffffffffffff160217905550610492806100c46000396000f3fe608060405234801561001057600080fd5b50600436106100365760003560e01c80635487d54f1461003b578063d47875d014610057575b600080fd5b610055600480360381019061005091906102dc565b610087565b005b610071600480360381019061006c919061031c565b6101fa565b60405161007e9190610358565b60405180910390f35b60008054906101000a900473ffffffffffffffffffffffffffffffffffffffff1673ffffffffffffffffffffffffffffffffffffffff163373ffffffffffffffffffffffffffffffffffffffff1614610115576040517f08c379a000000000000000000000000000000000000000000000000000000000815260040161010c906103d0565b60405180910390fd5b7fffffffffffffffffffffffffffffffffffffffffffffffffffffffffffffffff8211158015610146575060008210155b610185576040517f08c379a000000000000000000000000000000000000000000000000000000000815260040161017c9061043c565b60405180910390fd5b81600160008373ffffffffffffffffffffffffffffffffffffffff1673ffffffffffffffffffffffffffffffffffffffff16815260200190815260200160002081905550817f7066c15e54d15556b1735dc71838339dff56f3e19d70858505937495887bab8b60405160405180910390a25050565b6000600160008373ffffffffffffffffffffffffffffffffffffffff1673ffffffffffffffffffffffffffffffffffffffff168152602001908152602001600020549050919050565b600080fd5b6000819050919050565b61025b81610248565b811461026657600080fd5b50565b60008135905061027881610252565b92915050565b600073ffffffffffffffffffffffffffffffffffffffff82169050919050565b60006102a98261027e565b9050919050565b6102b98161029e565b81146102c457600080fd5b50565b6000813590506102d6816102b0565b92915050565b600080604083850312156102f3576102f2610243565b5b600061030185828601610269565b9250506020610312858286016102c7565b9150509250929050565b60006020828403121561033257610331610243565b5b6000610340848285016102c7565b91505092915050565b61035281610248565b82525050565b600060208201905061036d6000830184610349565b92915050565b600082825260208201905092915050565b7f4e6f7420616c6c6f776564000000000000000000000000000000000000000000600082015250565b60006103ba600b83610373565b91506103c582610384565b602082019050919050565b600060208201905081810360008301526103e9816103ad565b9050919050565b7f646f6e2774206f7665722f756e646572666c6f77206d65000000000000000000600082015250565b6000610426601783610373565b9150610431826103f0565b602082019050919050565b6000602082019050818103600083015261045581610419565b905091905056fea2646970667358221220e2b3fc2b0f7e6dca06e468cef4679905848f43d539f3892a8076021139be261864736f6c634300080d0033",
  "immutableReferences": {},
  "source": "//SPDX-License-Identifier: MIT\npragma solidity ^0.8.0;\n\n// just a toy contract , to reinforce syntax\n// because i can\ncontract Score {\n    address owner;\n    mapping(address => uint256) score_list;\n    uint256 my_score = score_list[owner];\n\n    event score_set(uint256 indexed);\n\n    constructor() {\n        owner = msg.sender;\n    }\n\n    //onlyOwner\n    modifier onlyMeTheOwnerWhoAlsoIsMyBestFanSoOnlyFans() {\n        require(msg.sender == owner, \"Not allowed\");\n        _;\n    }\n\n    //get score is implicit in the public declaration\n    function getScore(address user) public view returns (uint256) {\n        return score_list[user];\n    }\n\n    //set score, a defensive approach\n    function setScore(uint256 _score, address user)\n        public\n        onlyMeTheOwnerWhoAlsoIsMyBestFanSoOnlyFans\n    {\n        require(\n            _score <= type(uint256).max && _score >= type(uint256).min,\n            \"don't over/underflow me\"\n        );\n\n        score_list[user] = _score;\n        emit score_set(_score);\n    }\n}\n",
  "sourcePath": "/Users/sebas/Documents/coding/blockchain - things/encode/encode-challenges/contracts/Score.sol",
  "compiler": {
    "name": "solc",
    "version": "0.8.13+commit.abaa5c0e.Emscripten.clang"
  },
  "schemaVersion": "3.4.7",
  "updatedAt": "2022-04-24T10:08:00.779Z",
  "devdoc": {
    "kind": "dev",
    "methods": {},
    "version": 1
  },
  "userdoc": {
    "kind": "user",
    "methods": {},
    "version": 1
  }
}