{
  "contractName": "VolcanoCoin",
  "abi": [
    {
      "inputs": [],
      "stateMutability": "nonpayable",
      "type": "constructor"
    },
    {
      "anonymous": false,
      "inputs": [
        {
          "indexed": true,
          "internalType": "uint256",
          "name": "supply",
          "type": "uint256"
        }
      ],
      "name": "supplyChanged",
      "type": "event"
    },
    {
      "anonymous": false,
      "inputs": [
        {
          "indexed": true,
          "internalType": "address",
          "name": "from",
          "type": "address"
        },
        {
          "indexed": false,
          "internalType": "uint256",
          "name": "value",
          "type": "uint256"
        }
      ],
      "name": "transferFrom",
      "type": "event"
    },
    {
      "inputs": [
        {
          "internalType": "address",
          "name": "",
          "type": "address"
        }
      ],
      "name": "balance",
      "outputs": [
        {
          "internalType": "uint256",
          "name": "",
          "type": "uint256"
        }
      ],
      "stateMutability": "view",
      "type": "function"
    },
    {
      "inputs": [],
      "name": "totalSupply",
      "outputs": [
        {
          "internalType": "uint256",
          "name": "",
          "type": "uint256"
        }
      ],
      "stateMutability": "view",
      "type": "function"
    },
    {
      "inputs": [
        {
          "internalType": "address",
          "name": "user",
          "type": "address"
        }
      ],
      "name": "getBalance",
      "outputs": [
        {
          "internalType": "uint256",
          "name": "",
          "type": "uint256"
        }
      ],
      "stateMutability": "view",
      "type": "function"
    },
    {
      "inputs": [
        {
          "internalType": "address",
          "name": "user",
          "type": "address"
        },
        {
          "internalType": "uint256",
          "name": "_balance",
          "type": "uint256"
        }
      ],
      "name": "setBalance",
      "outputs": [
        {
          "internalType": "uint256",
          "name": "",
          "type": "uint256"
        }
      ],
      "stateMutability": "nonpayable",
      "type": "function"
    },
    {
      "inputs": [],
      "name": "getTotalSupply",
      "outputs": [
        {
          "internalType": "uint256",
          "name": "",
          "type": "uint256"
        }
      ],
      "stateMutability": "view",
      "type": "function"
    },
    {
      "inputs": [
        {
          "internalType": "address",
          "name": "from",
          "type": "address"
        },
        {
          "internalType": "uint256",
          "name": "amount",
          "type": "uint256"
        }
      ],
      "name": "transfer",
      "outputs": [],
      "stateMutability": "payable",
      "type": "function"
    },
    {
      "inputs": [
        {
          "internalType": "address",
          "name": "user",
          "type": "address"
        }
      ],
      "name": "getPayments",
      "outputs": [
        {
          "components": [
            {
              "internalType": "address",
              "name": "recipients",
              "type": "address"
            },
            {
              "internalType": "uint256",
              "name": "amount",
              "type": "uint256"
            }
          ],
          "internalType": "struct VolcanoCoin.Payment[]",
          "name": "",
          "type": "tuple[]"
        }
      ],
      "stateMutability": "view",
      "type": "function"
    },
    {
      "inputs": [
        {
          "internalType": "uint256",
          "name": "amount",
          "type": "uint256"
        }
      ],
      "name": "mint",
      "outputs": [],
      "stateMutability": "nonpayable",
      "type": "function"
    }
  ],
  "bytecode": "0x608060405234801561001057600080fd5b50620186a060008190555033600160006101000a81548173ffffffffffffffffffffffffffffffffffffffff021916908373ffffffffffffffffffffffffffffffffffffffff160217905550610090600160009054906101000a900473ffffffffffffffffffffffffffffffffffffffff1660005461009660201b60201c565b506100e3565b600081600260008573ffffffffffffffffffffffffffffffffffffffff1673ffffffffffffffffffffffffffffffffffffffff168152602001908152602001600020819055905092915050565b610adc806100f26000396000f3fe60806040526004361061007b5760003560e01c8063c4e41b221161004e578063c4e41b221461012d578063e30443bc14610158578063e3d670d714610195578063f8b2cb4f146101d25761007b565b806318160ddd146100805780631d6a1711146100ab578063a0712d68146100e8578063a9059cbb14610111575b600080fd5b34801561008c57600080fd5b5061009561020f565b6040516100a291906106a2565b60405180910390f35b3480156100b757600080fd5b506100d260048036038101906100cd9190610720565b610215565b6040516100df9190610849565b60405180910390f35b3480156100f457600080fd5b5061010f600480360381019061010a9190610897565b610313565b005b61012b600480360381019061012691906108c4565b6103ed565b005b34801561013957600080fd5b506101426105d2565b60405161014f91906106a2565b60405180910390f35b34801561016457600080fd5b5061017f600480360381019061017a91906108c4565b6105db565b60405161018c91906106a2565b60405180910390f35b3480156101a157600080fd5b506101bc60048036038101906101b79190610720565b610628565b6040516101c991906106a2565b60405180910390f35b3480156101de57600080fd5b506101f960048036038101906101f49190610720565b610640565b60405161020691906106a2565b60405180910390f35b60005481565b6060600360008373ffffffffffffffffffffffffffffffffffffffff1673ffffffffffffffffffffffffffffffffffffffff168152602001908152602001600020805480602002602001604051908101604052809291908181526020016000905b8282101561030857838290600052602060002090600202016040518060400160405290816000820160009054906101000a900473ffffffffffffffffffffffffffffffffffffffff1673ffffffffffffffffffffffffffffffffffffffff1673ffffffffffffffffffffffffffffffffffffffff16815260200160018201548152505081526020019060010190610276565b505050509050919050565b600160009054906101000a900473ffffffffffffffffffffffffffffffffffffffff1673ffffffffffffffffffffffffffffffffffffffff163373ffffffffffffffffffffffffffffffffffffffff16146103a3576040517f08c379a000000000000000000000000000000000000000000000000000000000815260040161039a90610961565b60405180910390fd5b806000808282546103b491906109b0565b925050819055506000547f11807018b39c540735143b98c01d9067bb1fbade40f566be966667aec0710b3760405160405180910390a250565b600060026000600160009054906101000a900473ffffffffffffffffffffffffffffffffffffffff1673ffffffffffffffffffffffffffffffffffffffff1673ffffffffffffffffffffffffffffffffffffffff16815260200190815260200160002054101561045c57600080fd5b60026000600160009054906101000a900473ffffffffffffffffffffffffffffffffffffffff1673ffffffffffffffffffffffffffffffffffffffff1673ffffffffffffffffffffffffffffffffffffffff16815260200190815260200160002054811115610500576040517f08c379a00000000000000000000000000000000000000000000000000000000081526004016104f790610a52565b60405180910390fd5b610561600160009054906101000a900473ffffffffffffffffffffffffffffffffffffffff1682610552600160009054906101000a900473ffffffffffffffffffffffffffffffffffffffff16610640565b61055c9190610a72565b6105db565b5061057f828261057085610640565b61057a91906109b0565b6105db565b508173ffffffffffffffffffffffffffffffffffffffff167f01c6adc3763a31a090ca076d7c9c601f24f0256c014656507d11bec0130f106e826040516105c691906106a2565b60405180910390a25050565b60008054905090565b600081600260008573ffffffffffffffffffffffffffffffffffffffff1673ffffffffffffffffffffffffffffffffffffffff168152602001908152602001600020819055905092915050565b60026020528060005260406000206000915090505481565b6000600260008373ffffffffffffffffffffffffffffffffffffffff1673ffffffffffffffffffffffffffffffffffffffff168152602001908152602001600020549050919050565b6000819050919050565b61069c81610689565b82525050565b60006020820190506106b76000830184610693565b92915050565b600080fd5b600073ffffffffffffffffffffffffffffffffffffffff82169050919050565b60006106ed826106c2565b9050919050565b6106fd816106e2565b811461070857600080fd5b50565b60008135905061071a816106f4565b92915050565b600060208284031215610736576107356106bd565b5b60006107448482850161070b565b91505092915050565b600081519050919050565b600082825260208201905092915050565b6000819050602082019050919050565b610782816106e2565b82525050565b61079181610689565b82525050565b6040820160008201516107ad6000850182610779565b5060208201516107c06020850182610788565b50505050565b60006107d28383610797565b60408301905092915050565b6000602082019050919050565b60006107f68261074d565b6108008185610758565b935061080b83610769565b8060005b8381101561083c57815161082388826107c6565b975061082e836107de565b92505060018101905061080f565b5085935050505092915050565b6000602082019050818103600083015261086381846107eb565b905092915050565b61087481610689565b811461087f57600080fd5b50565b6000813590506108918161086b565b92915050565b6000602082840312156108ad576108ac6106bd565b5b60006108bb84828501610882565b91505092915050565b600080604083850312156108db576108da6106bd565b5b60006108e98582860161070b565b92505060206108fa85828601610882565b9150509250929050565b600082825260208201905092915050565b7f41636365737320436f6e74726f6c206572726f722c206e6f7420616c6f776564600082015250565b600061094b602083610904565b915061095682610915565b602082019050919050565b6000602082019050818103600083015261097a8161093e565b9050919050565b7f4e487b7100000000000000000000000000000000000000000000000000000000600052601160045260246000fd5b60006109bb82610689565b91506109c683610689565b9250827fffffffffffffffffffffffffffffffffffffffffffffffffffffffffffffffff038211156109fb576109fa610981565b5b828201905092915050565b7f496e737566696369656e742066756e6473000000000000000000000000000000600082015250565b6000610a3c601183610904565b9150610a4782610a06565b602082019050919050565b60006020820190508181036000830152610a6b81610a2f565b9050919050565b6000610a7d82610689565b9150610a8883610689565b925082821015610a9b57610a9a610981565b5b82820390509291505056fea26469706673582212204e545086c0bccd88c4e088a7718660ed8b7d0dc168f6e2d833cf0c7d163ff74864736f6c634300080d0033",
  "immutableReferences": {},
  "source": "// SPDX-License-Identifier: UNLICENSED\npragma solidity ^0.8.0;\n\ncontract VolcanoCoin {\n//non erc20 compliant contract \n    uint public totalSupply;\n    address owner;\n    mapping(address => uint) public balance;\n    mapping(address => Payment[] ) payments;\n\n    struct Payment {\n        address recipients;\n        uint amount;\n    }\n\n    modifier onlyOwner {\n        require( msg.sender == owner, \"Access Control error, not alowed\");\n        _;\n    }\n\n    event supplyChanged(uint indexed supply);\n    event transferFrom(address indexed from, uint value);\n\n    constructor() {\n        totalSupply = 100000;\n        owner = msg.sender;\n        setBalance(owner, totalSupply);\n    }\n\n    function getBalance(address user) public view returns (uint) {\n        return balance[user];\n    }\n\n    function setBalance(address user, uint _balance) public returns (uint) {\n        return balance[user] = _balance;\n    }\n\n    // extra function, a public variable is also a getter\n    function getTotalSupply() public view returns (uint) {\n        return totalSupply;\n    }\n\n    //insecure function, for pedagogical reasons\n    function transfer(address from, uint amount) public payable {\n        require(balance[owner] >= 0);\n        require(amount <= balance[owner], \"Insuficient funds\" );\n        setBalance(owner, getBalance(owner)-amount); //balance[owner] -= amount;\n        setBalance(from, getBalance(from)+amount);   //balance[from] += amount;\n\n        emit transferFrom(from , amount);\n    }\n\n    function getPayments(address user) public view returns (Payment[] memory){\n        return payments[user];\n    }\n\n    function mint(uint amount) public onlyOwner{\n        totalSupply += amount;\n        emit supplyChanged(totalSupply);\n    }\n\n}\n\n",
  "sourcePath": "/Users/sebas/Documents/coding/blockchain - things/encode/encode-challenges/contracts/VolcanoCoin.sol",
  "compiler": {
    "name": "solc",
    "version": "0.8.13+commit.abaa5c0e.Emscripten.clang"
  },
  "schemaVersion": "3.4.7",
  "updatedAt": "2022-04-24T10:08:00.781Z",
  "devdoc": {
    "kind": "dev",
    "methods": {},
    "version": 1
  },
  "userdoc": {
    "kind": "user",
    "methods": {},
    "version": 1
  }
}